{
  "_format": "hh-sol-artifact-1",
  "contractName": "BlocVote",
  "sourceName": "contracts/BlocVote.sol",
  "abi": [
    {
      "inputs": [],
      "stateMutability": "nonpayable",
      "type": "constructor"
    },
    {
      "inputs": [
        {
          "internalType": "uint256",
          "name": "_candidateId",
          "type": "uint256"
        }
      ],
      "name": "candidateResult",
      "outputs": [
        {
          "internalType": "uint256",
          "name": "",
          "type": "uint256"
        }
      ],
      "stateMutability": "view",
      "type": "function"
    },
    {
      "inputs": [
        {
          "internalType": "uint256",
          "name": "",
          "type": "uint256"
        }
      ],
      "name": "candidates",
      "outputs": [
        {
          "internalType": "uint256",
          "name": "id",
          "type": "uint256"
        },
        {
          "internalType": "string",
          "name": "name",
          "type": "string"
        },
        {
          "internalType": "uint256",
          "name": "officeId",
          "type": "uint256"
        },
        {
          "internalType": "bool",
          "name": "isValid",
          "type": "bool"
        },
        {
          "internalType": "uint256",
          "name": "votes",
          "type": "uint256"
        }
      ],
      "stateMutability": "view",
      "type": "function"
    },
    {
      "inputs": [
        {
          "internalType": "uint256",
          "name": "_candidateId",
          "type": "uint256"
        },
        {
          "internalType": "uint256",
          "name": "_voterId",
          "type": "uint256"
        }
      ],
      "name": "castVote",
      "outputs": [],
      "stateMutability": "nonpayable",
      "type": "function"
    },
    {
      "inputs": [],
      "name": "chairman",
      "outputs": [
        {
          "internalType": "address",
          "name": "",
          "type": "address"
        }
      ],
      "stateMutability": "view",
      "type": "function"
    },
    {
      "inputs": [
        {
          "internalType": "address",
          "name": "_newChairman",
          "type": "address"
        }
      ],
      "name": "changeChairman",
      "outputs": [],
      "stateMutability": "nonpayable",
      "type": "function"
    },
    {
      "inputs": [],
      "name": "deployer",
      "outputs": [
        {
          "internalType": "address",
          "name": "",
          "type": "address"
        }
      ],
      "stateMutability": "view",
      "type": "function"
    },
    {
      "inputs": [],
      "name": "getResult",
      "outputs": [
        {
          "components": [
            {
              "internalType": "uint256",
              "name": "candidateId",
              "type": "uint256"
            },
            {
              "internalType": "uint256",
              "name": "officeId",
              "type": "uint256"
            },
            {
              "internalType": "uint256",
              "name": "votes",
              "type": "uint256"
            }
          ],
          "internalType": "struct IBlocVote.Result[]",
          "name": "",
          "type": "tuple[]"
        }
      ],
      "stateMutability": "view",
      "type": "function"
    },
    {
      "inputs": [
        {
          "internalType": "uint256",
          "name": "",
          "type": "uint256"
        }
      ],
      "name": "offices",
      "outputs": [
        {
          "internalType": "uint256",
          "name": "id",
          "type": "uint256"
        },
        {
          "internalType": "string",
          "name": "name",
          "type": "string"
        },
        {
          "internalType": "bool",
          "name": "isValid",
          "type": "bool"
        },
        {
          "internalType": "uint256",
          "name": "candidatesCount",
          "type": "uint256"
        }
      ],
      "stateMutability": "view",
      "type": "function"
    },
    {
      "inputs": [
        {
          "internalType": "uint256",
          "name": "_candidateId",
          "type": "uint256"
        }
      ],
      "name": "reactivateCandidate",
      "outputs": [],
      "stateMutability": "nonpayable",
      "type": "function"
    },
    {
      "inputs": [
        {
          "internalType": "uint256",
          "name": "_officeId",
          "type": "uint256"
        }
      ],
      "name": "reactivateOffice",
      "outputs": [],
      "stateMutability": "nonpayable",
      "type": "function"
    },
    {
      "inputs": [
        {
          "internalType": "string",
          "name": "_name",
          "type": "string"
        },
        {
          "internalType": "uint256",
          "name": "_officeId",
          "type": "uint256"
        }
      ],
      "name": "registerCandidate",
      "outputs": [],
      "stateMutability": "nonpayable",
      "type": "function"
    },
    {
      "inputs": [
        {
          "internalType": "string",
          "name": "_name",
          "type": "string"
        }
      ],
      "name": "registerOffice",
      "outputs": [],
      "stateMutability": "nonpayable",
      "type": "function"
    },
    {
      "inputs": [
        {
          "internalType": "uint256",
          "name": "_candidateId",
          "type": "uint256"
        }
      ],
      "name": "removeCandidate",
      "outputs": [],
      "stateMutability": "nonpayable",
      "type": "function"
    },
    {
      "inputs": [
        {
          "internalType": "uint256",
          "name": "_officeId",
          "type": "uint256"
        }
      ],
      "name": "removeOffice",
      "outputs": [],
      "stateMutability": "nonpayable",
      "type": "function"
    },
    {
      "inputs": [
        {
          "internalType": "uint256",
          "name": "",
          "type": "uint256"
        }
      ],
      "name": "votes",
      "outputs": [
        {
          "internalType": "uint256",
          "name": "candidateId",
          "type": "uint256"
        },
        {
          "internalType": "uint256",
          "name": "voterId",
          "type": "uint256"
        }
      ],
      "stateMutability": "view",
      "type": "function"
    }
  ],
  "bytecode": "0x60a06040523373ffffffffffffffffffffffffffffffffffffffff1660809073ffffffffffffffffffffffffffffffffffffffff1681525034801561004357600080fd5b50336000806101000a81548173ffffffffffffffffffffffffffffffffffffffff021916908373ffffffffffffffffffffffffffffffffffffffff1602179055506080516115b561009f600039600061075901526115b56000f3fe608060405234801561001057600080fd5b50600436106100f55760003560e01c806387f7b97511610097578063d8ee9edd11610066578063d8ee9edd14610276578063de292789146102a6578063e8101869146102c4578063f518b526146102e0576100f5565b806387f7b97514610202578063a5cab33214610220578063b272dc9d1461023c578063d5f3948814610258576100f5565b806357e2c58c116100d357806357e2c58c146101665780635cf64cff146101825780635df813301461019e57806360f1267c146101cf576100f5565b806309e9d7e2146100fa5780632c0a3f89146101165780633477ee2e14610132575b600080fd5b610114600480360381019061010f9190610bfa565b6102fc565b005b610130600480360381019061012b9190610c27565b61033d565b005b61014c60048036038101906101479190610bfa565b610397565b60405161015d959493929190610d21565b60405180910390f35b610180600480360381019061017b9190610bfa565b610472565b005b61019c60048036038101906101979190610bfa565b6104b3565b005b6101b860048036038101906101b39190610bfa565b6104f4565b6040516101c6929190610d7b565b60405180910390f35b6101e960048036038101906101e49190610bfa565b610528565b6040516101f99493929190610da4565b60405180910390f35b61020a6105fd565b6040516102179190610e31565b60405180910390f35b61023a60048036038101906102359190610bfa565b610621565b005b61025660048036038101906102519190610eb1565b610662565b005b610260610757565b60405161026d9190610e31565b60405180910390f35b610290600480360381019061028b9190610bfa565b61077b565b60405161029d9190610efe565b60405180910390f35b6102ae6107af565b6040516102bb9190611019565b60405180910390f35b6102de60048036038101906102d99190611067565b6108ef565b005b6102fa60048036038101906102f59190611094565b6109c0565b005b600060028281548110610312576103116110f4565b5b906000526020600020906005020160030160006101000a81548160ff02191690831515021790555050565b60016040518060400160405280848152602001838152509080600181540180825580915050600190039060005260206000209060020201600090919091909150600082015181600001556020820151816001015550505050565b600281815481106103a757600080fd5b90600052602060002090600502016000915090508060000154908060010180546103d090611152565b80601f01602080910402602001604051908101604052809291908181526020018280546103fc90611152565b80156104495780601f1061041e57610100808354040283529160200191610449565b820191906000526020600020905b81548152906001019060200180831161042c57829003601f168201915b5050505050908060020154908060030160009054906101000a900460ff16908060040154905085565b600060038281548110610488576104876110f4565b5b906000526020600020906004020160020160006101000a81548160ff02191690831515021790555050565b6001600382815481106104c9576104c86110f4565b5b906000526020600020906004020160020160006101000a81548160ff02191690831515021790555050565b6001818154811061050457600080fd5b90600052602060002090600202016000915090508060000154908060010154905082565b6003818154811061053857600080fd5b906000526020600020906004020160009150905080600001549080600101805461056190611152565b80601f016020809104026020016040519081016040528092919081815260200182805461058d90611152565b80156105da5780601f106105af576101008083540402835291602001916105da565b820191906000526020600020905b8154815290600101906020018083116105bd57829003601f168201915b5050505050908060020160009054906101000a900460ff16908060030154905084565b60008054906101000a900473ffffffffffffffffffffffffffffffffffffffff1681565b600160028281548110610637576106366110f4565b5b906000526020600020906005020160030160006101000a81548160ff02191690831515021790555050565b600060038054905090506000604051806080016040528083815260200185858080601f016020809104026020016040519081016040528093929190818152602001838380828437600081840152601f19601f820116905080830192505050505050508152602001600115158152602001600081525090506003819080600181540180825580915050600190039060005260206000209060040201600090919091909150600082015181600001556020820151816001019081610724919061135e565b5060408201518160020160006101000a81548160ff02191690831515021790555060608201518160030155505050505050565b7f000000000000000000000000000000000000000000000000000000000000000081565b60008060028381548110610792576107916110f4565b5b906000526020600020906005020160040154905080915050919050565b6060600060028054905067ffffffffffffffff8111156107d2576107d1611183565b5b60405190808252806020026020018201604052801561080b57816020015b6107f8610b99565b8152602001906001900390816107f05790505b50905060005b6002805490508110156108e75760028181548110610832576108316110f4565b5b906000526020600020906005020160030160009054906101000a900460ff16156108da5760405180606001604052808281526020016002838154811061087b5761087a6110f4565b5b9060005260206000209060050201600201548152602001600283815481106108a6576108a56110f4565b5b9060005260206000209060050201600401548152508282815181106108ce576108cd6110f4565b5b60200260200101819052505b8080600101915050610811565b508091505090565b60008054906101000a900473ffffffffffffffffffffffffffffffffffffffff1673ffffffffffffffffffffffffffffffffffffffff163373ffffffffffffffffffffffffffffffffffffffff161461097d576040517f08c379a00000000000000000000000000000000000000000000000000000000081526004016109749061147c565b60405180910390fd5b806000806101000a81548173ffffffffffffffffffffffffffffffffffffffff021916908373ffffffffffffffffffffffffffffffffffffffff16021790555050565b600381815481106109d4576109d36110f4565b5b906000526020600020906004020160020160009054906101000a900460ff16610a32576040517f08c379a0000000000000000000000000000000000000000000000000000000008152600401610a29906114e8565b60405180910390fd5b6000600280549050905060006040518060a0016040528083815260200186868080601f016020809104026020016040519081016040528093929190818152602001838380828437600081840152601f19601f82011690508083019250505050505050815260200184815260200160011515815260200160008152509050600060038481548110610ac557610ac46110f4565b5b90600052602060002090600402016003015490508080610ae490611537565b915060038581548110610afa57610af96110f4565b5b9060005260206000209060040201600301819055506002829080600181540180825580915050600190039060005260206000209060050201600090919091909150600082015181600001556020820151816001019081610b5a919061135e565b506040820151816002015560608201518160030160006101000a81548160ff021916908315150217905550608082015181600401555050505050505050565b60405180606001604052806000815260200160008152602001600081525090565b600080fd5b600080fd5b6000819050919050565b610bd781610bc4565b8114610be257600080fd5b50565b600081359050610bf481610bce565b92915050565b600060208284031215610c1057610c0f610bba565b5b6000610c1e84828501610be5565b91505092915050565b60008060408385031215610c3e57610c3d610bba565b5b6000610c4c85828601610be5565b9250506020610c5d85828601610be5565b9150509250929050565b610c7081610bc4565b82525050565b600081519050919050565b600082825260208201905092915050565b60005b83811015610cb0578082015181840152602081019050610c95565b60008484015250505050565b6000601f19601f8301169050919050565b6000610cd882610c76565b610ce28185610c81565b9350610cf2818560208601610c92565b610cfb81610cbc565b840191505092915050565b60008115159050919050565b610d1b81610d06565b82525050565b600060a082019050610d366000830188610c67565b8181036020830152610d488187610ccd565b9050610d576040830186610c67565b610d646060830185610d12565b610d716080830184610c67565b9695505050505050565b6000604082019050610d906000830185610c67565b610d9d6020830184610c67565b9392505050565b6000608082019050610db96000830187610c67565b8181036020830152610dcb8186610ccd565b9050610dda6040830185610d12565b610de76060830184610c67565b95945050505050565b600073ffffffffffffffffffffffffffffffffffffffff82169050919050565b6000610e1b82610df0565b9050919050565b610e2b81610e10565b82525050565b6000602082019050610e466000830184610e22565b92915050565b600080fd5b600080fd5b600080fd5b60008083601f840112610e7157610e70610e4c565b5b8235905067ffffffffffffffff811115610e8e57610e8d610e51565b5b602083019150836001820283011115610eaa57610ea9610e56565b5b9250929050565b60008060208385031215610ec857610ec7610bba565b5b600083013567ffffffffffffffff811115610ee657610ee5610bbf565b5b610ef285828601610e5b565b92509250509250929050565b6000602082019050610f136000830184610c67565b92915050565b600081519050919050565b600082825260208201905092915050565b6000819050602082019050919050565b610f4e81610bc4565b82525050565b606082016000820151610f6a6000850182610f45565b506020820151610f7d6020850182610f45565b506040820151610f906040850182610f45565b50505050565b6000610fa28383610f54565b60608301905092915050565b6000602082019050919050565b6000610fc682610f19565b610fd08185610f24565b9350610fdb83610f35565b8060005b8381101561100c578151610ff38882610f96565b9750610ffe83610fae565b925050600181019050610fdf565b5085935050505092915050565b600060208201905081810360008301526110338184610fbb565b905092915050565b61104481610e10565b811461104f57600080fd5b50565b6000813590506110618161103b565b92915050565b60006020828403121561107d5761107c610bba565b5b600061108b84828501611052565b91505092915050565b6000806000604084860312156110ad576110ac610bba565b5b600084013567ffffffffffffffff8111156110cb576110ca610bbf565b5b6110d786828701610e5b565b935093505060206110ea86828701610be5565b9150509250925092565b7f4e487b7100000000000000000000000000000000000000000000000000000000600052603260045260246000fd5b7f4e487b7100000000000000000000000000000000000000000000000000000000600052602260045260246000fd5b6000600282049050600182168061116a57607f821691505b60208210810361117d5761117c611123565b5b50919050565b7f4e487b7100000000000000000000000000000000000000000000000000000000600052604160045260246000fd5b60008190508160005260206000209050919050565b60006020601f8301049050919050565b600082821b905092915050565b6000600883026112147fffffffffffffffffffffffffffffffffffffffffffffffffffffffffffffffff826111d7565b61121e86836111d7565b95508019841693508086168417925050509392505050565b6000819050919050565b600061125b61125661125184610bc4565b611236565b610bc4565b9050919050565b6000819050919050565b61127583611240565b61128961128182611262565b8484546111e4565b825550505050565b600090565b61129e611291565b6112a981848461126c565b505050565b5b818110156112cd576112c2600082611296565b6001810190506112af565b5050565b601f821115611312576112e3816111b2565b6112ec846111c7565b810160208510156112fb578190505b61130f611307856111c7565b8301826112ae565b50505b505050565b600082821c905092915050565b600061133560001984600802611317565b1980831691505092915050565b600061134e8383611324565b9150826002028217905092915050565b61136782610c76565b67ffffffffffffffff8111156113805761137f611183565b5b61138a8254611152565b6113958282856112d1565b600060209050601f8311600181146113c857600084156113b6578287015190505b6113c08582611342565b865550611428565b601f1984166113d6866111b2565b60005b828110156113fe578489015182556001820191506020850194506020810190506113d9565b8683101561141b5784890151611417601f891682611324565b8355505b6001600288020188555050505b505050505050565b7f756e617574686f72697a65640000000000000000000000000000000000000000600082015250565b6000611466600c83610c81565b915061147182611430565b602082019050919050565b6000602082019050818103600083015261149581611459565b9050919050565b7f496e76616c6964206f6666696365206964000000000000000000000000000000600082015250565b60006114d2601183610c81565b91506114dd8261149c565b602082019050919050565b60006020820190508181036000830152611501816114c5565b9050919050565b7f4e487b7100000000000000000000000000000000000000000000000000000000600052601160045260246000fd5b600061154282610bc4565b91507fffffffffffffffffffffffffffffffffffffffffffffffffffffffffffffffff820361157457611573611508565b5b60018201905091905056fea264697066735822122014ab5b6ac733d2bad801842e281994ab416695ae7959fa2cb8e098a4830948ce64736f6c63430008180033",
  "linkReferences": {},
  "deployedLinkReferences": {}
}