{
  "_format": "hh-sol-artifact-1",
  "contractName": "BlocVote",
  "sourceName": "contracts/BlocVote.sol",
  "abi": [
    {
      "inputs": [
        {
          "internalType": "address",
          "name": "_deployer",
          "type": "address"
        }
      ],
      "stateMutability": "nonpayable",
      "type": "constructor"
    },
    {
      "inputs": [
        {
          "internalType": "uint256",
          "name": "_candidateId",
          "type": "uint256"
        }
      ],
      "name": "candidateResult",
      "outputs": [
        {
          "internalType": "uint256",
          "name": "",
          "type": "uint256"
        }
      ],
      "stateMutability": "view",
      "type": "function"
    },
    {
      "inputs": [
        {
          "internalType": "uint256",
          "name": "",
          "type": "uint256"
        }
      ],
      "name": "candidates",
      "outputs": [
        {
          "internalType": "uint256",
          "name": "id",
          "type": "uint256"
        },
        {
          "internalType": "string",
          "name": "name",
          "type": "string"
        },
        {
          "internalType": "uint256",
          "name": "officeId",
          "type": "uint256"
        },
        {
          "internalType": "bool",
          "name": "isValid",
          "type": "bool"
        },
        {
          "internalType": "uint256",
          "name": "votes",
          "type": "uint256"
        }
      ],
      "stateMutability": "view",
      "type": "function"
    },
    {
      "inputs": [
        {
          "internalType": "uint256",
          "name": "_candidateId",
          "type": "uint256"
        },
        {
          "internalType": "uint256",
          "name": "_voterId",
          "type": "uint256"
        }
      ],
      "name": "castVote",
      "outputs": [],
      "stateMutability": "nonpayable",
      "type": "function"
    },
    {
      "inputs": [],
      "name": "chairman",
      "outputs": [
        {
          "internalType": "address",
          "name": "",
          "type": "address"
        }
      ],
      "stateMutability": "view",
      "type": "function"
    },
    {
      "inputs": [
        {
          "internalType": "address",
          "name": "_newChairman",
          "type": "address"
        }
      ],
      "name": "changeChairman",
      "outputs": [],
      "stateMutability": "nonpayable",
      "type": "function"
    },
    {
      "inputs": [],
      "name": "deployer",
      "outputs": [
        {
          "internalType": "address",
          "name": "",
          "type": "address"
        }
      ],
      "stateMutability": "view",
      "type": "function"
    },
    {
      "inputs": [],
      "name": "getResult",
      "outputs": [
        {
          "components": [
            {
              "internalType": "uint256",
              "name": "candidateId",
              "type": "uint256"
            },
            {
              "internalType": "uint256",
              "name": "officeId",
              "type": "uint256"
            },
            {
              "internalType": "uint256",
              "name": "votes",
              "type": "uint256"
            }
          ],
          "internalType": "struct IBlocVote.Result[]",
          "name": "",
          "type": "tuple[]"
        }
      ],
      "stateMutability": "view",
      "type": "function"
    },
    {
      "inputs": [
        {
          "internalType": "uint256",
          "name": "",
          "type": "uint256"
        }
      ],
      "name": "offices",
      "outputs": [
        {
          "internalType": "uint256",
          "name": "id",
          "type": "uint256"
        },
        {
          "internalType": "string",
          "name": "name",
          "type": "string"
        },
        {
          "internalType": "bool",
          "name": "isValid",
          "type": "bool"
        },
        {
          "internalType": "uint256",
          "name": "candidatesCount",
          "type": "uint256"
        }
      ],
      "stateMutability": "view",
      "type": "function"
    },
    {
      "inputs": [
        {
          "internalType": "uint256",
          "name": "_candidateId",
          "type": "uint256"
        }
      ],
      "name": "reactivateCandidate",
      "outputs": [],
      "stateMutability": "nonpayable",
      "type": "function"
    },
    {
      "inputs": [
        {
          "internalType": "uint256",
          "name": "_officeId",
          "type": "uint256"
        }
      ],
      "name": "reactivateOffice",
      "outputs": [],
      "stateMutability": "nonpayable",
      "type": "function"
    },
    {
      "inputs": [
        {
          "internalType": "string",
          "name": "_name",
          "type": "string"
        },
        {
          "internalType": "uint256",
          "name": "_officeId",
          "type": "uint256"
        }
      ],
      "name": "registerCandidate",
      "outputs": [],
      "stateMutability": "nonpayable",
      "type": "function"
    },
    {
      "inputs": [
        {
          "internalType": "string",
          "name": "_name",
          "type": "string"
        }
      ],
      "name": "registerOffice",
      "outputs": [],
      "stateMutability": "nonpayable",
      "type": "function"
    },
    {
      "inputs": [
        {
          "internalType": "uint256",
          "name": "_candidateId",
          "type": "uint256"
        }
      ],
      "name": "removeCandidate",
      "outputs": [],
      "stateMutability": "nonpayable",
      "type": "function"
    },
    {
      "inputs": [
        {
          "internalType": "uint256",
          "name": "_officeId",
          "type": "uint256"
        }
      ],
      "name": "removeOffice",
      "outputs": [],
      "stateMutability": "nonpayable",
      "type": "function"
    },
    {
      "inputs": [
        {
          "internalType": "uint256",
          "name": "",
          "type": "uint256"
        }
      ],
      "name": "votes",
      "outputs": [
        {
          "internalType": "uint256",
          "name": "candidateId",
          "type": "uint256"
        },
        {
          "internalType": "uint256",
          "name": "voterId",
          "type": "uint256"
        }
      ],
      "stateMutability": "view",
      "type": "function"
    }
  ],
  "bytecode": "0x60a06040523373ffffffffffffffffffffffffffffffffffffffff1660809073ffffffffffffffffffffffffffffffffffffffff168152503480156200004457600080fd5b50604051620016403803806200164083398181016040528101906200006a91906200011b565b806000806101000a81548173ffffffffffffffffffffffffffffffffffffffff021916908373ffffffffffffffffffffffffffffffffffffffff160217905550506200014d565b600080fd5b600073ffffffffffffffffffffffffffffffffffffffff82169050919050565b6000620000e382620000b6565b9050919050565b620000f581620000d6565b81146200010157600080fd5b50565b6000815190506200011581620000ea565b92915050565b600060208284031215620001345762000133620000b1565b5b6000620001448482850162000104565b91505092915050565b6080516114d762000169600039600061075901526114d76000f3fe608060405234801561001057600080fd5b50600436106100f55760003560e01c806387f7b97511610097578063d8ee9edd11610066578063d8ee9edd14610276578063de292789146102a6578063e8101869146102c4578063f518b526146102e0576100f5565b806387f7b97514610202578063a5cab33214610220578063b272dc9d1461023c578063d5f3948814610258576100f5565b806357e2c58c116100d357806357e2c58c146101665780635cf64cff146101825780635df813301461019e57806360f1267c146101cf576100f5565b806309e9d7e2146100fa5780632c0a3f89146101165780633477ee2e14610132575b600080fd5b610114600480360381019061010f9190610b88565b6102fc565b005b610130600480360381019061012b9190610bb5565b61033d565b005b61014c60048036038101906101479190610b88565b610397565b60405161015d959493929190610caf565b60405180910390f35b610180600480360381019061017b9190610b88565b610472565b005b61019c60048036038101906101979190610b88565b6104b3565b005b6101b860048036038101906101b39190610b88565b6104f4565b6040516101c6929190610d09565b60405180910390f35b6101e960048036038101906101e49190610b88565b610528565b6040516101f99493929190610d32565b60405180910390f35b61020a6105fd565b6040516102179190610dbf565b60405180910390f35b61023a60048036038101906102359190610b88565b610621565b005b61025660048036038101906102519190610e3f565b610662565b005b610260610757565b60405161026d9190610dbf565b60405180910390f35b610290600480360381019061028b9190610b88565b61077b565b60405161029d9190610e8c565b60405180910390f35b6102ae6107af565b6040516102bb9190610fa7565b60405180910390f35b6102de60048036038101906102d99190610ff5565b6108ef565b005b6102fa60048036038101906102f59190611022565b6109c0565b005b60006002828154811061031257610311611082565b5b906000526020600020906005020160030160006101000a81548160ff02191690831515021790555050565b60016040518060400160405280848152602001838152509080600181540180825580915050600190039060005260206000209060020201600090919091909150600082015181600001556020820151816001015550505050565b600281815481106103a757600080fd5b90600052602060002090600502016000915090508060000154908060010180546103d0906110e0565b80601f01602080910402602001604051908101604052809291908181526020018280546103fc906110e0565b80156104495780601f1061041e57610100808354040283529160200191610449565b820191906000526020600020905b81548152906001019060200180831161042c57829003601f168201915b5050505050908060020154908060030160009054906101000a900460ff16908060040154905085565b60006003828154811061048857610487611082565b5b906000526020600020906004020160020160006101000a81548160ff02191690831515021790555050565b6001600382815481106104c9576104c8611082565b5b906000526020600020906004020160020160006101000a81548160ff02191690831515021790555050565b6001818154811061050457600080fd5b90600052602060002090600202016000915090508060000154908060010154905082565b6003818154811061053857600080fd5b9060005260206000209060040201600091509050806000015490806001018054610561906110e0565b80601f016020809104026020016040519081016040528092919081815260200182805461058d906110e0565b80156105da5780601f106105af576101008083540402835291602001916105da565b820191906000526020600020905b8154815290600101906020018083116105bd57829003601f168201915b5050505050908060020160009054906101000a900460ff16908060030154905084565b60008054906101000a900473ffffffffffffffffffffffffffffffffffffffff1681565b60016002828154811061063757610636611082565b5b906000526020600020906005020160030160006101000a81548160ff02191690831515021790555050565b600060038054905090506000604051806080016040528083815260200185858080601f016020809104026020016040519081016040528093929190818152602001838380828437600081840152601f19601f82011690508083019250505050505050815260200160011515815260200160008152509050600381908060018154018082558091505060019003906000526020600020906004020160009091909190915060008201518160000155602082015181600101908161072491906112ec565b5060408201518160020160006101000a81548160ff02191690831515021790555060608201518160030155505050505050565b7f000000000000000000000000000000000000000000000000000000000000000081565b6000806002838154811061079257610791611082565b5b906000526020600020906005020160040154905080915050919050565b6060600060028054905067ffffffffffffffff8111156107d2576107d1611111565b5b60405190808252806020026020018201604052801561080b57816020015b6107f8610b27565b8152602001906001900390816107f05790505b50905060005b6002805490508110156108e7576002818154811061083257610831611082565b5b906000526020600020906005020160030160009054906101000a900460ff16156108da5760405180606001604052808281526020016002838154811061087b5761087a611082565b5b9060005260206000209060050201600201548152602001600283815481106108a6576108a5611082565b5b9060005260206000209060050201600401548152508282815181106108ce576108cd611082565b5b60200260200101819052505b8080600101915050610811565b508091505090565b60008054906101000a900473ffffffffffffffffffffffffffffffffffffffff1673ffffffffffffffffffffffffffffffffffffffff163373ffffffffffffffffffffffffffffffffffffffff161461097d576040517f08c379a00000000000000000000000000000000000000000000000000000000081526004016109749061140a565b60405180910390fd5b806000806101000a81548173ffffffffffffffffffffffffffffffffffffffff021916908373ffffffffffffffffffffffffffffffffffffffff16021790555050565b6000600280549050905060006040518060a0016040528083815260200186868080601f016020809104026020016040519081016040528093929190818152602001838380828437600081840152601f19601f82011690508083019250505050505050815260200184815260200160011515815260200160008152509050600060038481548110610a5357610a52611082565b5b90600052602060002090600402016003015490508080610a7290611459565b915060038581548110610a8857610a87611082565b5b9060005260206000209060040201600301819055506002829080600181540180825580915050600190039060005260206000209060050201600090919091909150600082015181600001556020820151816001019081610ae891906112ec565b506040820151816002015560608201518160030160006101000a81548160ff021916908315150217905550608082015181600401555050505050505050565b60405180606001604052806000815260200160008152602001600081525090565b600080fd5b600080fd5b6000819050919050565b610b6581610b52565b8114610b7057600080fd5b50565b600081359050610b8281610b5c565b92915050565b600060208284031215610b9e57610b9d610b48565b5b6000610bac84828501610b73565b91505092915050565b60008060408385031215610bcc57610bcb610b48565b5b6000610bda85828601610b73565b9250506020610beb85828601610b73565b9150509250929050565b610bfe81610b52565b82525050565b600081519050919050565b600082825260208201905092915050565b60005b83811015610c3e578082015181840152602081019050610c23565b60008484015250505050565b6000601f19601f8301169050919050565b6000610c6682610c04565b610c708185610c0f565b9350610c80818560208601610c20565b610c8981610c4a565b840191505092915050565b60008115159050919050565b610ca981610c94565b82525050565b600060a082019050610cc46000830188610bf5565b8181036020830152610cd68187610c5b565b9050610ce56040830186610bf5565b610cf26060830185610ca0565b610cff6080830184610bf5565b9695505050505050565b6000604082019050610d1e6000830185610bf5565b610d2b6020830184610bf5565b9392505050565b6000608082019050610d476000830187610bf5565b8181036020830152610d598186610c5b565b9050610d686040830185610ca0565b610d756060830184610bf5565b95945050505050565b600073ffffffffffffffffffffffffffffffffffffffff82169050919050565b6000610da982610d7e565b9050919050565b610db981610d9e565b82525050565b6000602082019050610dd46000830184610db0565b92915050565b600080fd5b600080fd5b600080fd5b60008083601f840112610dff57610dfe610dda565b5b8235905067ffffffffffffffff811115610e1c57610e1b610ddf565b5b602083019150836001820283011115610e3857610e37610de4565b5b9250929050565b60008060208385031215610e5657610e55610b48565b5b600083013567ffffffffffffffff811115610e7457610e73610b4d565b5b610e8085828601610de9565b92509250509250929050565b6000602082019050610ea16000830184610bf5565b92915050565b600081519050919050565b600082825260208201905092915050565b6000819050602082019050919050565b610edc81610b52565b82525050565b606082016000820151610ef86000850182610ed3565b506020820151610f0b6020850182610ed3565b506040820151610f1e6040850182610ed3565b50505050565b6000610f308383610ee2565b60608301905092915050565b6000602082019050919050565b6000610f5482610ea7565b610f5e8185610eb2565b9350610f6983610ec3565b8060005b83811015610f9a578151610f818882610f24565b9750610f8c83610f3c565b925050600181019050610f6d565b5085935050505092915050565b60006020820190508181036000830152610fc18184610f49565b905092915050565b610fd281610d9e565b8114610fdd57600080fd5b50565b600081359050610fef81610fc9565b92915050565b60006020828403121561100b5761100a610b48565b5b600061101984828501610fe0565b91505092915050565b60008060006040848603121561103b5761103a610b48565b5b600084013567ffffffffffffffff81111561105957611058610b4d565b5b61106586828701610de9565b9350935050602061107886828701610b73565b9150509250925092565b7f4e487b7100000000000000000000000000000000000000000000000000000000600052603260045260246000fd5b7f4e487b7100000000000000000000000000000000000000000000000000000000600052602260045260246000fd5b600060028204905060018216806110f857607f821691505b60208210810361110b5761110a6110b1565b5b50919050565b7f4e487b7100000000000000000000000000000000000000000000000000000000600052604160045260246000fd5b60008190508160005260206000209050919050565b60006020601f8301049050919050565b600082821b905092915050565b6000600883026111a27fffffffffffffffffffffffffffffffffffffffffffffffffffffffffffffffff82611165565b6111ac8683611165565b95508019841693508086168417925050509392505050565b6000819050919050565b60006111e96111e46111df84610b52565b6111c4565b610b52565b9050919050565b6000819050919050565b611203836111ce565b61121761120f826111f0565b848454611172565b825550505050565b600090565b61122c61121f565b6112378184846111fa565b505050565b5b8181101561125b57611250600082611224565b60018101905061123d565b5050565b601f8211156112a05761127181611140565b61127a84611155565b81016020851015611289578190505b61129d61129585611155565b83018261123c565b50505b505050565b600082821c905092915050565b60006112c3600019846008026112a5565b1980831691505092915050565b60006112dc83836112b2565b9150826002028217905092915050565b6112f582610c04565b67ffffffffffffffff81111561130e5761130d611111565b5b61131882546110e0565b61132382828561125f565b600060209050601f8311600181146113565760008415611344578287015190505b61134e85826112d0565b8655506113b6565b601f19841661136486611140565b60005b8281101561138c57848901518255600182019150602085019450602081019050611367565b868310156113a957848901516113a5601f8916826112b2565b8355505b6001600288020188555050505b505050505050565b7f756e617574686f72697a65640000000000000000000000000000000000000000600082015250565b60006113f4600c83610c0f565b91506113ff826113be565b602082019050919050565b60006020820190508181036000830152611423816113e7565b9050919050565b7f4e487b7100000000000000000000000000000000000000000000000000000000600052601160045260246000fd5b600061146482610b52565b91507fffffffffffffffffffffffffffffffffffffffffffffffffffffffffffffffff82036114965761149561142a565b5b60018201905091905056fea2646970667358221220b055df0e69caad91ee2b6b072ba746a65049ff37dcbf647e6721e80781dd42fc64736f6c63430008180033",
  "linkReferences": {},
  "deployedLinkReferences": {}
}