{
  "abi": [
    {
      "type": "constructor",
      "inputs": [
        {
          "name": "_deployer",
          "type": "address",
          "internalType": "address"
        }
      ],
      "stateMutability": "nonpayable"
    },
    {
      "type": "function",
      "name": "candidateResult",
      "inputs": [
        {
          "name": "_candidateId",
          "type": "uint256",
          "internalType": "uint256"
        }
      ],
      "outputs": [
        {
          "name": "",
          "type": "uint256",
          "internalType": "uint256"
        }
      ],
      "stateMutability": "view"
    },
    {
      "type": "function",
      "name": "candidates",
      "inputs": [
        {
          "name": "",
          "type": "uint256",
          "internalType": "uint256"
        }
      ],
      "outputs": [
        {
          "name": "id",
          "type": "uint256",
          "internalType": "uint256"
        },
        {
          "name": "name",
          "type": "string",
          "internalType": "string"
        },
        {
          "name": "officeId",
          "type": "uint256",
          "internalType": "uint256"
        },
        {
          "name": "isValid",
          "type": "bool",
          "internalType": "bool"
        },
        {
          "name": "votes",
          "type": "uint256",
          "internalType": "uint256"
        }
      ],
      "stateMutability": "view"
    },
    {
      "type": "function",
      "name": "castVote",
      "inputs": [
        {
          "name": "_votes",
          "type": "tuple[]",
          "internalType": "struct IBlocVote.Vote[]",
          "components": [
            {
              "name": "candidateId",
              "type": "uint256",
              "internalType": "uint256"
            },
            {
              "name": "officeId",
              "type": "uint256",
              "internalType": "uint256"
            }
          ]
        }
      ],
      "outputs": [],
      "stateMutability": "nonpayable"
    },
    {
      "type": "function",
      "name": "chairman",
      "inputs": [],
      "outputs": [
        {
          "name": "",
          "type": "address",
          "internalType": "address"
        }
      ],
      "stateMutability": "view"
    },
    {
      "type": "function",
      "name": "changeChairman",
      "inputs": [
        {
          "name": "_newChairman",
          "type": "address",
          "internalType": "address"
        }
      ],
      "outputs": [],
      "stateMutability": "nonpayable"
    },
    {
      "type": "function",
      "name": "deployer",
      "inputs": [],
      "outputs": [
        {
          "name": "",
          "type": "address",
          "internalType": "address"
        }
      ],
      "stateMutability": "view"
    },
    {
      "type": "function",
      "name": "getResult",
      "inputs": [],
      "outputs": [
        {
          "name": "",
          "type": "tuple[]",
          "internalType": "struct IBlocVote.Result[]",
          "components": [
            {
              "name": "candidateId",
              "type": "uint256",
              "internalType": "uint256"
            },
            {
              "name": "officeId",
              "type": "uint256",
              "internalType": "uint256"
            },
            {
              "name": "votes",
              "type": "uint256",
              "internalType": "uint256"
            }
          ]
        }
      ],
      "stateMutability": "view"
    },
    {
      "type": "function",
      "name": "offices",
      "inputs": [
        {
          "name": "",
          "type": "uint256",
          "internalType": "uint256"
        }
      ],
      "outputs": [
        {
          "name": "id",
          "type": "uint256",
          "internalType": "uint256"
        },
        {
          "name": "name",
          "type": "string",
          "internalType": "string"
        },
        {
          "name": "isValid",
          "type": "bool",
          "internalType": "bool"
        },
        {
          "name": "candidatesCount",
          "type": "uint256",
          "internalType": "uint256"
        }
      ],
      "stateMutability": "view"
    },
    {
      "type": "function",
      "name": "reactivateCandidate",
      "inputs": [
        {
          "name": "_candidateId",
          "type": "uint256",
          "internalType": "uint256"
        }
      ],
      "outputs": [],
      "stateMutability": "nonpayable"
    },
    {
      "type": "function",
      "name": "reactivateOffice",
      "inputs": [
        {
          "name": "_officeId",
          "type": "uint256",
          "internalType": "uint256"
        }
      ],
      "outputs": [],
      "stateMutability": "nonpayable"
    },
    {
      "type": "function",
      "name": "registerCandidate",
      "inputs": [
        {
          "name": "_name",
          "type": "string",
          "internalType": "string"
        },
        {
          "name": "_officeId",
          "type": "uint256",
          "internalType": "uint256"
        }
      ],
      "outputs": [],
      "stateMutability": "nonpayable"
    },
    {
      "type": "function",
      "name": "registerOffice",
      "inputs": [
        {
          "name": "_name",
          "type": "string",
          "internalType": "string"
        }
      ],
      "outputs": [],
      "stateMutability": "nonpayable"
    },
    {
      "type": "function",
      "name": "removeCandidate",
      "inputs": [
        {
          "name": "_candidateId",
          "type": "uint256",
          "internalType": "uint256"
        }
      ],
      "outputs": [],
      "stateMutability": "nonpayable"
    },
    {
      "type": "function",
      "name": "removeOffice",
      "inputs": [
        {
          "name": "_officeId",
          "type": "uint256",
          "internalType": "uint256"
        }
      ],
      "outputs": [],
      "stateMutability": "nonpayable"
    },
    {
      "type": "function",
      "name": "votes",
      "inputs": [
        {
          "name": "",
          "type": "uint256",
          "internalType": "uint256"
        }
      ],
      "outputs": [
        {
          "name": "candidateId",
          "type": "uint256",
          "internalType": "uint256"
        },
        {
          "name": "officeId",
          "type": "uint256",
          "internalType": "uint256"
        }
      ],
      "stateMutability": "view"
    }
  ],
  "bytecode": {
    "object": "0x60a06040523360805234801561001457600080fd5b50604051610f53380380610f5383398101604081905261003391610058565b600080546001600160a01b0319166001600160a01b0392909216919091179055610088565b60006020828403121561006a57600080fd5b81516001600160a01b038116811461008157600080fd5b9392505050565b608051610eb06100a360003960006102160152610eb06000f3fe608060405234801561001057600080fd5b50600436106100f55760003560e01c806387f7b97511610097578063d8ee9edd11610066578063d8ee9edd14610238578063de29278914610259578063e81018691461026e578063f518b5261461028157600080fd5b806387f7b975146101c0578063a5cab332146101eb578063b272dc9d146101fe578063d5f394881461021157600080fd5b806357e2c58c116100d357806357e2c58c1461014f5780635cf64cff146101625780635df813301461017557806360f1267c1461019d57600080fd5b806309e9d7e2146100fa5780633477ee2e1461010f5780634d10dbc61461013c575b600080fd5b61010d61010836600461099a565b610294565b005b61012261011d36600461099a565b6102ce565b6040516101339594939291906109f9565b60405180910390f35b61010d61014a366004610a9f565b61039e565b61010d61015d36600461099a565b6103f8565b61010d61017036600461099a565b610432565b61018861018336600461099a565b610447565b60408051928352602083019190915201610133565b6101b06101ab36600461099a565b610475565b6040516101339493929190610b6c565b6000546101d3906001600160a01b031681565b6040516001600160a01b039091168152602001610133565b61010d6101f936600461099a565b61053d565b61010d61020c366004610be1565b610552565b6101d37f000000000000000000000000000000000000000000000000000000000000000081565b61024b61024636600461099a565b61064b565b604051908152602001610133565b61026161067c565b6040516101339190610c23565b61010d61027c366004610c7c565b6107c0565b61010d61028f366004610cac565b61082f565b6000600282815481106102a9576102a9610cf8565b60009182526020909120600590910201600301805460ff191691151591909117905550565b600281815481106102de57600080fd5b6000918252602090912060059091020180546001820180549193509061030390610d0e565b80601f016020809104026020016040519081016040528092919081815260200182805461032f90610d0e565b801561037c5780601f106103515761010080835404028352916020019161037c565b820191906000526020600020905b81548152906001019060200180831161035f57829003601f168201915b50505050600283015460038401546004909401549293909260ff909116915085565b60005b81518110156103f45760018282815181106103be576103be610cf8565b602090810291909101810151825460018181018555600094855293839020825160029092020190815591015190820155016103a1565b5050565b60006003828154811061040d5761040d610cf8565b60009182526020909120600490910201600201805460ff191691151591909117905550565b60016003828154811061040d5761040d610cf8565b6001818154811061045757600080fd5b60009182526020909120600290910201805460019091015490915082565b6003818154811061048557600080fd5b600091825260209091206004909102018054600182018054919350906104aa90610d0e565b80601f01602080910402602001604051908101604052809291908181526020018280546104d690610d0e565b80156105235780601f106104f857610100808354040283529160200191610523565b820191906000526020600020905b81548152906001019060200180831161050657829003601f168201915b505050506002830154600390930154919260ff1691905084565b6001600282815481106102a9576102a9610cf8565b6003546040805160808101825282815281516020601f8601819004810282018101909352848152600092808301919087908790819084018382808284376000920182905250938552505060016020808501829052604090940183905260038054918201815590925250825160049091027fc2575a0e9e593c00f959f8c92f12db2869c3395a3b0502d05e2516446f71f85b810191825591830151929350839290917fc2575a0e9e593c00f959f8c92f12db2869c3395a3b0502d05e2516446f71f85c01906106209082610d93565b50604082015160028201805460ff191691151591909117905560609091015160039091015550505050565b6000806002838154811061066157610661610cf8565b60009182526020909120600460059092020101549392505050565b60025460609060009067ffffffffffffffff81111561069d5761069d610a2f565b6040519080825280602002602001820160405280156106f257816020015b6106df60405180606001604052806000815260200160008152602001600081525090565b8152602001906001900390816106bb5790505b50905060005b6002548110156107ba576002818154811061071557610715610cf8565b600091825260209091206003600590920201015460ff16156107b25760405180606001604052808281526020016002838154811061075557610755610cf8565b90600052602060002090600502016002015481526020016002838154811061077f5761077f610cf8565b9060005260206000209060050201600401548152508282815181106107a6576107a6610cf8565b60200260200101819052505b6001016106f8565b50919050565b6000546001600160a01b0316331461080d5760405162461bcd60e51b815260206004820152600c60248201526b1d5b985d5d1a1bdc9a5e995960a21b604482015260640160405180910390fd5b600080546001600160a01b0319166001600160a01b0392909216919091179055565b6002546040805160a08101825282815281516020601f870181900481028201810190935285815260009280830191908890889081908401838280828437600092018290525093855250505060208201869052600160408301526060909101819052600380549293509091859081106108a9576108a9610cf8565b906000526020600020906004020160030154905080806108c890610e53565b9150600385815481106108dd576108dd610cf8565b6000918252602080832060036004909302019190910192909255600280546001810182559152835160059091027f405787fa12a823e0f2b7631cc41b3ba8828b3321ca811111fa75cd3aa3bb5ace81019182559184015184927f405787fa12a823e0f2b7631cc41b3ba8828b3321ca811111fa75cd3aa3bb5acf01906109639082610d93565b5060408201516002820155606082015160038201805460ff1916911515919091179055608090910151600490910155505050505050565b6000602082840312156109ac57600080fd5b5035919050565b6000815180845260005b818110156109d9576020818501810151868301820152016109bd565b506000602082860101526020601f19601f83011685010191505092915050565b85815260a060208201526000610a1260a08301876109b3565b604083019590955250911515606083015260809091015292915050565b634e487b7160e01b600052604160045260246000fd5b6040805190810167ffffffffffffffff81118282101715610a6857610a68610a2f565b60405290565b604051601f8201601f1916810167ffffffffffffffff81118282101715610a9757610a97610a2f565b604052919050565b60006020808385031215610ab257600080fd5b823567ffffffffffffffff80821115610aca57600080fd5b818501915085601f830112610ade57600080fd5b813581811115610af057610af0610a2f565b610afe848260051b01610a6e565b818152848101925060069190911b830184019087821115610b1e57600080fd5b928401925b81841015610b615760408489031215610b3c5760008081fd5b610b44610a45565b843581528585013586820152835260409093019291840191610b23565b979650505050505050565b848152608060208201526000610b8560808301866109b3565b9315156040830152506060015292915050565b60008083601f840112610baa57600080fd5b50813567ffffffffffffffff811115610bc257600080fd5b602083019150836020828501011115610bda57600080fd5b9250929050565b60008060208385031215610bf457600080fd5b823567ffffffffffffffff811115610c0b57600080fd5b610c1785828601610b98565b90969095509350505050565b602080825282518282018190526000919060409081850190868401855b82811015610c6f5781518051855286810151878601528501518585015260609093019290850190600101610c40565b5091979650505050505050565b600060208284031215610c8e57600080fd5b81356001600160a01b0381168114610ca557600080fd5b9392505050565b600080600060408486031215610cc157600080fd5b833567ffffffffffffffff811115610cd857600080fd5b610ce486828701610b98565b909790965060209590950135949350505050565b634e487b7160e01b600052603260045260246000fd5b600181811c90821680610d2257607f821691505b6020821081036107ba57634e487b7160e01b600052602260045260246000fd5b601f821115610d8e576000816000526020600020601f850160051c81016020861015610d6b5750805b601f850160051c820191505b81811015610d8a57828155600101610d77565b5050505b505050565b815167ffffffffffffffff811115610dad57610dad610a2f565b610dc181610dbb8454610d0e565b84610d42565b602080601f831160018114610df65760008415610dde5750858301515b600019600386901b1c1916600185901b178555610d8a565b600085815260208120601f198616915b82811015610e2557888601518255948401946001909101908401610e06565b5085821015610e435787850151600019600388901b60f8161c191681555b5050505050600190811b01905550565b600060018201610e7357634e487b7160e01b600052601160045260246000fd5b506001019056fea26469706673582212209ae10bdfc40189cda48789deaa36c04c10ed57eb6d9e3c3ea73ccd7d4ad937de64736f6c63430008180033",
    "linkReferences": {}
  },
  "methodIdentifiers": {
    "candidateResult(uint256)": "d8ee9edd",
    "candidates(uint256)": "3477ee2e",
    "castVote((uint256,uint256)[])": "4d10dbc6",
    "chairman()": "87f7b975",
    "changeChairman(address)": "e8101869",
    "deployer()": "d5f39488",
    "getResult()": "de292789",
    "offices(uint256)": "60f1267c",
    "reactivateCandidate(uint256)": "a5cab332",
    "reactivateOffice(uint256)": "5cf64cff",
    "registerCandidate(string,uint256)": "f518b526",
    "registerOffice(string)": "b272dc9d",
    "removeCandidate(uint256)": "09e9d7e2",
    "removeOffice(uint256)": "57e2c58c",
    "votes(uint256)": "5df81330"
  },
  "id": 21
}